:020000040000FA
:100000000C9463000C948B000C948B000C94F802FD
:100010000C94F8020C94F8020C948B000C948B0056
:100020000C948B000C948B000C948B000C948B0024
:100030000C948B000C948B000C948B000C948B0014
:100040000C9456020C948B000C94C6020C94A002E3
:100050000C948B000C948B000C948B000C948B00F4
:100060000C948B000C948B0000000008000201002F
:100070000003040700000000000000000000000072
:1000800023002600290000000000240027002A0089
:1000900000000000250028002B00040404040404D0
:1000A0000404020202020202030303030303010227
:1000B00004081020408001020408102001020408F6
:1000C0001020BC036A0611241FBECFEFD8E0DEBFAC
:1000D000CDBF11E0A0E0B1E0E2E3FDE002C0059099
:1000E0000D92A835B107D9F722E0A8E5B1E001C02B
:1000F0001D92A43DB207E1F710E0C2E6D0E004C0D3
:100100002197FE010E948606C136D107C9F70E94D9
:1001100021050C948C060C940000AF92BF92CF92F4
:10012000DF92EF92FF920F931F93CF93DF936C01B7
:100130007B018B01040F151FEB015E01AE18BF0898
:10014000C017D10759F06991D601ED91FC9101904A
:10015000F081E02DC6010995892B79F7C501DF9162
:10016000CF911F910F91FF90EF90DF90CF90BF90B4
:10017000AF900895FC01538D448D252F30E0842FDE
:1001800090E0821B930B541710F0CF9608950197BF
:100190000895FC01918D828D981761F0A28DAE0FAC
:1001A000BF2FB11D5D968C91928D9F5F9F73928F33
:1001B00090E008958FEF9FEF0895FC01918D828D5F
:1001C000981731F0828DE80FF11D858D90E008952C
:1001D0008FEF9FEF0895FC01918D228D892F90E084
:1001E000805C9F4F821B91098F739927089585EA40
:1001F00091E00E94EB0021E0892B09F420E0822F9E
:10020000089580E090E0892B29F00E94F700811189
:100210000C9400000895FC01A48DA80FB92FB11D06
:10022000A35ABF4F2C91848D90E001968F7399272C
:10023000848FA689B7892C93A089B1898C9183700A
:1002400080648C93938D848D981306C00288F38903
:10025000E02D80818F7D80830895EF92FF920F9330
:100260001F93CF93DF93EC0181E0888F9B8D8C8D62
:1002700098131AC0E889F989808185FF15C09FB756
:10028000F894EE89FF896083E889F9898081837019
:10029000806480839FBF81E090E0DF91CF911F91C8
:1002A0000F91FF90EF900895F62E0B8D10E00F5FE9
:1002B0001F4F0F731127E02E8C8D8E110CC00FB6BF
:1002C00007FCFACFE889F989808185FFF5CFCE0157
:1002D0000E940B01F1CFEB8DEC0FFD2FF11DE35AC6
:1002E000FF4FF0829FB7F8940B8FEA89FB898081DA
:1002F0008062CFCFCF93DF93EC01888D8823B9F054
:10030000AA89BB89E889F9898C9185FD03C0808120
:1003100086FD0DC00FB607FCF7CF8C9185FFF2CF9D
:10032000808185FFEDCFCE010E940B01E9CFDF91E7
:10033000CF91089520919A0130919B012817390798
:1003400071F49091980180919901981741F0E09192
:100350009801F0E0E85AFE4F808190E008958FEF19
:100360009FEF08950895EF92FF920F931F93CF93FD
:10037000DF93DC015C96ED90FC905D97E114F10455
:1003800079F481E090E013969C938E93129790E01D
:1003900080E0DF91CF911F910F91FF90EF90089532
:1003A0005196ED91FC91529750968C915097982FC1
:1003B00090950FB75E962C915E97122F127021FDCB
:1003C0006095F8942081112319F1282B2083E701EF
:1003D0002197F1F728E0462F50E0308160FF1AC0E6
:1003E000382B3083E7012197F1F7BA0175956795AE
:1003F000215089F7112381F08081892380830FBFE9
:100400005C968D919C910197F1F781E090E0C1CFCE
:100410002923DCCF3923E5CF9081892BEFCF2091A1
:100420009A0130919B012817390761F48091990155
:100430002091980190E0805C9F4F821B91098F73FF
:100440009927089590E080E0089520919A013091D5
:100450009B0128173907B9F490919801809199016F
:10046000981789F0E0919801F0E0E85AFE4F8081FA
:100470002091980130E02F5F3F4F2F733327209357
:10048000980190E008958FEF9FEF089590E080E04D
:100490000895FC0101900020E9F73197AF01481B56
:1004A000590BBC0185EA91E00C948D001F920F92CC
:1004B0000FB60F9211242F933F938F939F93AF9377
:1004C000BF938091A1019091A201A091A301B0914D
:1004D000A4013091A00123E0230F2D3758F5019698
:1004E000A11DB11D2093A0018093A1019093A201B1
:1004F000A093A301B093A40180919C0190919D01D0
:10050000A0919E01B0919F010196A11DB11D809304
:100510009C0190939D01A0939E01B0939F01BF9178
:10052000AF919F918F913F912F910F900FBE0F90A0
:100530001F90189526E8230F0296A11DB11DD2CF5A
:100540001F920F920FB60F9211242F933F934F9348
:100550005F936F937F938F939F93AF93BF93EF932B
:10056000FF9385EA91E00E940B01FF91EF91BF910B
:10057000AF919F918F917F916F915F914F913F913B
:100580002F910F900FBE0F901F9018951F920F92F2
:100590000FB60F9211242F938F939F93EF93FF9396
:1005A000E091B501F091B6018081E091BB01F0913D
:1005B000BC0182FD1BC090818091BE018F5F8F7353
:1005C0002091BF01821741F0E091BE01F0E0EB55B0
:1005D000FE4F958F8093BE01FF91EF919F918F9178
:1005E0002F910F900FBE0F901F9018958081F4CF20
:1005F0001F920F920FB60F9211242F933F934F9398
:100600005F936F937F938F939F93AF93BF93EF937A
:10061000FF93E0919A01F0919B01309749F0A685F4
:10062000B7858585968D91FF14C09C918923A1F48F
:10063000FF91EF91BF91AF919F918F917F916F91BA
:100640005F914F913F912F910F900FBE0F901F9090
:1006500018959C91892361F7A389B4899C91858918
:10066000809589238C93868997890197F1F7608D0E
:10067000718DA685B785558538E020E0CB010197BF
:10068000F1F7822F90E095958795282F4C9145237F
:1006900009F02068315091F7868D81FD2095809179
:1006A000990190E001968F7399273091980138173E
:1006B00099F0A0919901B0E0A85ABE4F2C93809375
:1006C0009901828D938D0197F1F7A389B4898C915B
:1006D0009589892B8C93ACCF868D8160868FF1CFE5
:1006E00090E0FC01E859FF4F2491FC01E255FF4FD7
:1006F0003491FC01E656FF4FE491EE23C9F022232A
:1007000039F0233001F1A8F4213019F1223029F118
:10071000F0E0EE0FFF1FE057FF4FA591B4918FB7A8
:10072000F894EC91611126C030953E233C938FBF25
:1007300008952730A9F02830C9F0243049F7809176
:1007400080008F7D03C0809180008F778093800030
:10075000DFCF84B58F7784BDDBCF84B58F7DFBCFB2
:100760008091B0008F778093B000D2CF8091B0009D
:100770008F7DF9CF3E2BDACF0F931F93CF93DF936B
:100780001092A8011092A70108EE13E020E030E0DB
:100790000093A9011093AA012093AB013093AC01FF
:1007A00084E091E09093A6018093A50185EC90E010
:1007B0009093B2018093B10184EC90E09093B401E6
:1007C0008093B30180EC90E09093B6018093B501E3
:1007D00081EC90E09093B8018093B70182EC90E0B7
:1007E0009093BA018093B90186EC90E09093BC019C
:1007F0008093BB011092BE011092BF011092C00104
:100800001092C1014FEF5FEFBA0140936102509324
:100810006202609363027093640210926902109204
:100820006A0210926B0210926C028FEF99ECAAE9A7
:10083000BBE38093710290937202A0937302B09312
:1008400074028093790290937A02A0937B02B09312
:100850007C028093810290938202A0938302B093E2
:1008600084028093890290938A02A0938B02B093B2
:100870008C028093910290939202A0939302B09382
:1008800094024093990250939A0260939B02709352
:100890009C028FEF90E09093A2028093A10240937C
:1008A000A5025093A6026093A7027093A8024093FA
:1008B000AD025093AE026093AF027093B0021092FB
:1008C000B5021092B60282E08093C6021092C7026F
:1008D0001092C8021092C9021092CA021092CB0262
:1008E0001092CC021092CD021092CF021092CE0242
:1008F0001092D1021092D0021092B70210924502CB
:10090000109244020093460210934702209348023B
:100910003093490286E191E0909343028093420232
:10092000109259021092580210925B0210925A02D1
:1009300010925D0210925C0210925F0210925E02B1
:10094000609160026E7F6D7F60936002669561705A
:1009500081E0682783E00E94700341EB50E0FA01D8
:1009600064918DE990E0FC012491222399F030E01C
:10097000220F331FF901EA57FF4FA591B491F901F6
:10098000E057FF4F259134912FB7F8943C91632B9A
:100990006C932FBFFA01449140935202FC01849161
:1009A000E82FF0E0EE0FFF1FE057FF4F8591949185
:1009B000909354028093530202EB10E0F8012491CB
:1009C000CEE9D0E0FE0184918823C9F090E0880F41
:1009D000991FFC01EA57FF4FA591B491FC01E05724
:1009E000FF4F459154913FB7F8949C91822F809589
:1009F00098239C93FA019081892380833FBF809143
:100A0000600281FD04C061E084E00E94700384E024
:100A100080934E02F801049100934F02FE01C491AD
:100A2000EC2FF0E0EE0FFF1FE458FF4F85919491FB
:100A30009093510280935002DF91CF911F910F91BB
:100A40000895CF93DF93CDB7DEB7A1970FB6F89493
:100A5000DEBF0FBECDBF789484B5826084BD84B5FF
:100A6000816084BD85B5826085BD85B5816085BDA9
:100A700080916E00816080936E0010928100809161
:100A800081008260809381008091810081608093E9
:100A90008100809180008160809380008091B1000E
:100AA00084608093B1008091B00081608093B00039
:100AB00080917A00846080937A0080917A008260CD
:100AC00080937A0080917A00816080937A0080918F
:100AD0007A00806880937A001092C100E091B5019D
:100AE000F091B60182E08083E091B101F091B20112
:100AF0001082E091B301F091B40180E18083109203
:100B0000BD01E091B901F091BA0186E08083E091E6
:100B1000B701F091B801808180618083E091B701D5
:100B2000F091B801808188608083E091B701F091F5
:100B3000B801808180688083E091B701F091B801AD
:100B400080818F7D808310925D0210925C021092F2
:100B50005B0210925A0210925902109258028EE3D0
:100B600093E090935F0280935E0290914E029631E3
:100B700008F047C02DE831E0309359022093580225
:100B80002CE333E030935B0220935A0224E632E0F8
:100B900030935D0220935C022091680084E09830DD
:100BA00048F031E09E3008F430E081E001C0880F69
:100BB0003A95EAF7822B809368002DE630E0983072
:100BC00050F02BE630E09E3030F02CE630E09631ED
:100BD00010F030E020E03093560220935502292F88
:100BE00030E0983008F069C081E001C0880F9A9524
:100BF000EAF78093570280915E0290915F0201971D
:100C0000F1F780915C0290915D02892B49F1E091AE
:100C10009A01F0919B0182E0E234F80709F13097E4
:100C200039F0A389B4899C918589809589238C9317
:100C3000809160028E7F80936002109299011092E1
:100C4000980182E492E090939B0180939A01E09155
:100C50005502F0915602808190915702892B808332
:100C600084E291E00E94490219A283E388A381E310
:100C70008F8FCE014F960E9449028FE391E00E9430
:100C8000490282E491E00E9449028FE391E00E94D0
:100C900049028FE391E00E94490200E010E080E504
:100CA00091E00E94490201151105C9F30E94F70065
:100CB0008823A9F30E940000F2CF9E3040F4285010
:100CC000310981E001C0880F2A95EAF792CF2E50B2
:100CD0003109F7CF86E191E090934302809342027D
:100CE00080919A0190919B018254924071F4E0911D
:100CF0005502F09156029081809157028095892388
:100D0000808310929B0110929A010895EE0FFF1FAD
:100D10000590F491E02D099410E0C2E6D0E004C003
:100D2000FE010E9486062196C336D107C9F7F894C2
:100D3000FFCF000000002D018D00BA007A01EB000A
:100D4000C900DD0000000000B3018D004602B201C1
:100D50000F0225029A0153696D706C652054696E0B
:100D600079475053206C69627261727920762E2027
:100D7000000D0A006279204D696B616C2048617238
:0A0D800074002043484152533D0027
:107E0000112484B714BE81FFF0D085E080938100F7
:107E100082E08093C00088E18093C10086E0809377
:107E2000C20080E18093C4008EE0C9D0259A86E02C
:107E300020E33CEF91E0309385002093840096BBD3
:107E4000B09BFECF1D9AA8958150A9F7CC24DD24C4
:107E500088248394B5E0AB2EA1E19A2EF3E0BF2EE7
:107E6000A2D0813461F49FD0082FAFD0023811F036
:107E7000013811F484E001C083E08DD089C08234E0
:107E800011F484E103C0853419F485E0A6D080C0E4
:107E9000853579F488D0E82EFF2485D0082F10E0AE
:107EA000102F00270E291F29000F111F8ED06801E7
:107EB0006FC0863521F484E090D080E0DECF843638
:107EC00009F040C070D06FD0082F6DD080E0C81688
:107ED00080E7D80618F4F601B7BEE895C0E0D1E017
:107EE00062D089930C17E1F7F0E0CF16F0E7DF06D8
:107EF00018F0F601B7BEE89568D007B600FCFDCFD4
:107F0000A601A0E0B1E02C9130E011968C91119780
:107F100090E0982F8827822B932B1296FA010C0160
:107F200087BEE89511244E5F5F4FF1E0A038BF0790
:107F300051F7F601A7BEE89507B600FCFDCF97BE46
:107F4000E89526C08437B1F42ED02DD0F82E2BD052
:107F50003CD0F601EF2C8F010F5F1F4F84911BD097
:107F6000EA94F801C1F70894C11CD11CFA94CF0C13
:107F7000D11C0EC0853739F428D08EE10CD085E9AC
:107F80000AD08FE07ACF813511F488E018D01DD067
:107F900080E101D065CF982F8091C00085FFFCCF94
:107FA0009093C60008958091C00087FFFCCF809118
:107FB000C00084FD01C0A8958091C6000895E0E648
:107FC000F0E098E1908380830895EDDF803219F02E
:107FD00088E0F5DFFFCF84E1DECF1F93182FE3DFCA
:107FE0001150E9F7F2DF1F91089580E0E8DFEE27F6
:047FF000FF270994CA
:027FFE00040479
:00000001FF
